{
  "_format": "hh-sol-artifact-1",
  "contractName": "AMMLiquidityPool",
  "sourceName": "contracts/LiquidityPool.sol",
  "abi": [
    {
      "inputs": [
        {
          "internalType": "address",
          "name": "_mtTokenAddress",
          "type": "address"
        }
      ],
      "stateMutability": "nonpayable",
      "type": "constructor"
    },
    {
      "inputs": [],
      "name": "ReentrancyGuardReentrantCall",
      "type": "error"
    },
    {
      "inputs": [],
      "name": "mtToken",
      "outputs": [
        {
          "internalType": "contract IMTToken",
          "name": "",
          "type": "address"
        }
      ],
      "stateMutability": "view",
      "type": "function"
    },
    {
      "inputs": [],
      "name": "provideLiquidity",
      "outputs": [],
      "stateMutability": "payable",
      "type": "function"
    },
    {
      "inputs": [
        {
          "internalType": "uint256",
          "name": "mtTokenAmount",
          "type": "uint256"
        }
      ],
      "name": "removeLiquidity",
      "outputs": [],
      "stateMutability": "nonpayable",
      "type": "function"
    },
    {
      "inputs": [],
      "name": "totalETHDeposited",
      "outputs": [
        {
          "internalType": "uint256",
          "name": "",
          "type": "uint256"
        }
      ],
      "stateMutability": "view",
      "type": "function"
    },
    {
      "stateMutability": "payable",
      "type": "receive"
    }
  ],
  "bytecode": "0x608060405234801561001057600080fd5b50604051610a86380380610a86833981810160405281019061003291906100e4565b600160008190555080600160006101000a81548173ffffffffffffffffffffffffffffffffffffffff021916908373ffffffffffffffffffffffffffffffffffffffff16021790555050610111565b600080fd5b600073ffffffffffffffffffffffffffffffffffffffff82169050919050565b60006100b182610086565b9050919050565b6100c1816100a6565b81146100cc57600080fd5b50565b6000815190506100de816100b8565b92915050565b6000602082840312156100fa576100f9610081565b5b6000610108848285016100cf565b91505092915050565b610966806101206000396000f3fe6080604052600436106100435760003560e01c806360c97b221461004f5780637b2c9070146100595780639c8f9f2314610084578063ad1dd070146100ad5761004a565b3661004a57005b600080fd5b6100576100d8565b005b34801561006557600080fd5b5061006e6102aa565b60405161007b9190610523565b60405180910390f35b34801561009057600080fd5b506100ab60048036038101906100a6919061056f565b6102b0565b005b3480156100b957600080fd5b506100c2610494565b6040516100cf919061061b565b60405180910390f35b6100e06104ba565b60003411610123576040517f08c379a000000000000000000000000000000000000000000000000000000000815260040161011a906106b9565b60405180910390fd5b60008060025403610136573490506101f7565b600034476101449190610708565b90506000600160009054906101000a900473ffffffffffffffffffffffffffffffffffffffff1673ffffffffffffffffffffffffffffffffffffffff166318160ddd6040518163ffffffff1660e01b8152600401602060405180830381865afa1580156101b5573d6000803e3d6000fd5b505050506040513d601f19601f820116820180604052508101906101d99190610751565b90508181346101e8919061077e565b6101f291906107ef565b925050505b600160009054906101000a900473ffffffffffffffffffffffffffffffffffffffff1673ffffffffffffffffffffffffffffffffffffffff166340c10f1933836040518363ffffffff1660e01b8152600401610254929190610841565b600060405180830381600087803b15801561026e57600080fd5b505af1158015610282573d6000803e3d6000fd5b505050503460026000828254610298919061086a565b92505081905550506102a8610500565b565b60025481565b6102b86104ba565b600081116102fb576040517f08c379a00000000000000000000000000000000000000000000000000000000081526004016102f290610910565b60405180910390fd5b60004790506000600160009054906101000a900473ffffffffffffffffffffffffffffffffffffffff1673ffffffffffffffffffffffffffffffffffffffff166318160ddd6040518163ffffffff1660e01b8152600401602060405180830381865afa15801561036f573d6000803e3d6000fd5b505050506040513d601f19601f820116820180604052508101906103939190610751565b905060008183856103a4919061077e565b6103ae91906107ef565b9050600160009054906101000a900473ffffffffffffffffffffffffffffffffffffffff1673ffffffffffffffffffffffffffffffffffffffff16639dc29fac33866040518363ffffffff1660e01b815260040161040d929190610841565b600060405180830381600087803b15801561042757600080fd5b505af115801561043b573d6000803e3d6000fd5b505050503373ffffffffffffffffffffffffffffffffffffffff166108fc829081150290604051600060405180830381858888f19350505050158015610485573d6000803e3d6000fd5b50505050610491610500565b50565b600160009054906101000a900473ffffffffffffffffffffffffffffffffffffffff1681565b6002600054036104f6576040517f3ee5aeb500000000000000000000000000000000000000000000000000000000815260040160405180910390fd5b6002600081905550565b6001600081905550565b6000819050919050565b61051d8161050a565b82525050565b60006020820190506105386000830184610514565b92915050565b600080fd5b61054c8161050a565b811461055757600080fd5b50565b60008135905061056981610543565b92915050565b6000602082840312156105855761058461053e565b5b60006105938482850161055a565b91505092915050565b600073ffffffffffffffffffffffffffffffffffffffff82169050919050565b6000819050919050565b60006105e16105dc6105d78461059c565b6105bc565b61059c565b9050919050565b60006105f3826105c6565b9050919050565b6000610605826105e8565b9050919050565b610615816105fa565b82525050565b6000602082019050610630600083018461060c565b92915050565b600082825260208201905092915050565b7f4e65656420746f206465706f736974206120706f73697469766520616d6f756e60008201527f74206f6620455448000000000000000000000000000000000000000000000000602082015250565b60006106a3602883610636565b91506106ae82610647565b604082019050919050565b600060208201905081810360008301526106d281610696565b9050919050565b7f4e487b7100000000000000000000000000000000000000000000000000000000600052601160045260246000fd5b60006107138261050a565b915061071e8361050a565b9250828203905081811115610736576107356106d9565b5b92915050565b60008151905061074b81610543565b92915050565b6000602082840312156107675761076661053e565b5b60006107758482850161073c565b91505092915050565b60006107898261050a565b91506107948361050a565b92508282026107a28161050a565b915082820484148315176107b9576107b86106d9565b5b5092915050565b7f4e487b7100000000000000000000000000000000000000000000000000000000600052601260045260246000fd5b60006107fa8261050a565b91506108058361050a565b925082610815576108146107c0565b5b828204905092915050565b600061082b8261059c565b9050919050565b61083b81610820565b82525050565b60006040820190506108566000830185610832565b6108636020830184610514565b9392505050565b60006108758261050a565b91506108808361050a565b9250828201905080821115610898576108976106d9565b5b92915050565b7f4e65656420746f207769746864726177206120706f73697469766520616d6f7560008201527f6e74206f66204d5420746f6b656e730000000000000000000000000000000000602082015250565b60006108fa602f83610636565b91506109058261089e565b604082019050919050565b60006020820190508181036000830152610929816108ed565b905091905056fea26469706673582212201d117ecb5f2c22037014e17a6f389df0dd48708a2abfbeb24e5f50086dfb32c564736f6c63430008140033",
  "linkReferences": {},
  "deployedLinkReferences": {}
}