{
  "_format": "hh-sol-artifact-1",
  "contractName": "PeerToPeerLending",
  "sourceName": "contracts/PeerToPeerLending.sol",
  "abi": [
    {
      "inputs": [],
      "stateMutability": "nonpayable",
      "type": "constructor"
    },
    {
      "anonymous": false,
      "inputs": [
        {
          "indexed": true,
          "internalType": "address",
          "name": "borrower",
          "type": "address"
        },
        {
          "indexed": false,
          "internalType": "uint256",
          "name": "amount",
          "type": "uint256"
        },
        {
          "indexed": false,
          "internalType": "uint256",
          "name": "interestRate",
          "type": "uint256"
        },
        {
          "indexed": false,
          "internalType": "uint256",
          "name": "dueDate",
          "type": "uint256"
        }
      ],
      "name": "Borrowed",
      "type": "event"
    },
    {
      "anonymous": false,
      "inputs": [
        {
          "indexed": true,
          "internalType": "address",
          "name": "lender",
          "type": "address"
        },
        {
          "indexed": false,
          "internalType": "uint256",
          "name": "amount",
          "type": "uint256"
        }
      ],
      "name": "Lent",
      "type": "event"
    },
    {
      "anonymous": false,
      "inputs": [
        {
          "indexed": true,
          "internalType": "address",
          "name": "borrower",
          "type": "address"
        },
        {
          "indexed": false,
          "internalType": "uint256",
          "name": "amount",
          "type": "uint256"
        }
      ],
      "name": "Repaid",
      "type": "event"
    },
    {
      "inputs": [],
      "name": "INTEREST_RATE",
      "outputs": [
        {
          "internalType": "uint256",
          "name": "",
          "type": "uint256"
        }
      ],
      "stateMutability": "view",
      "type": "function"
    },
    {
      "inputs": [],
      "name": "LOAN_DURATION",
      "outputs": [
        {
          "internalType": "uint256",
          "name": "",
          "type": "uint256"
        }
      ],
      "stateMutability": "view",
      "type": "function"
    },
    {
      "inputs": [
        {
          "internalType": "address",
          "name": "",
          "type": "address"
        }
      ],
      "name": "balances",
      "outputs": [
        {
          "internalType": "uint256",
          "name": "",
          "type": "uint256"
        }
      ],
      "stateMutability": "view",
      "type": "function"
    },
    {
      "inputs": [],
      "name": "borrow",
      "outputs": [],
      "stateMutability": "payable",
      "type": "function"
    },
    {
      "inputs": [],
      "name": "lend",
      "outputs": [],
      "stateMutability": "payable",
      "type": "function"
    },
    {
      "inputs": [
        {
          "internalType": "address",
          "name": "",
          "type": "address"
        }
      ],
      "name": "loans",
      "outputs": [
        {
          "internalType": "address",
          "name": "borrower",
          "type": "address"
        },
        {
          "internalType": "uint256",
          "name": "amount",
          "type": "uint256"
        },
        {
          "internalType": "uint256",
          "name": "interestRate",
          "type": "uint256"
        },
        {
          "internalType": "uint256",
          "name": "dueDate",
          "type": "uint256"
        },
        {
          "internalType": "bool",
          "name": "repaid",
          "type": "bool"
        }
      ],
      "stateMutability": "view",
      "type": "function"
    },
    {
      "inputs": [],
      "name": "owner",
      "outputs": [
        {
          "internalType": "address",
          "name": "",
          "type": "address"
        }
      ],
      "stateMutability": "view",
      "type": "function"
    },
    {
      "inputs": [],
      "name": "repayLoan",
      "outputs": [],
      "stateMutability": "payable",
      "type": "function"
    },
    {
      "inputs": [],
      "name": "totalLentAmount",
      "outputs": [
        {
          "internalType": "uint256",
          "name": "",
          "type": "uint256"
        }
      ],
      "stateMutability": "view",
      "type": "function"
    },
    {
      "inputs": [
        {
          "internalType": "uint256",
          "name": "_amount",
          "type": "uint256"
        }
      ],
      "name": "withdraw",
      "outputs": [],
      "stateMutability": "nonpayable",
      "type": "function"
    }
  ],
  "bytecode": "0x608060405234801561001057600080fd5b50336000806101000a81548173ffffffffffffffffffffffffffffffffffffffff021916908373ffffffffffffffffffffffffffffffffffffffff16021790555061108e806100606000396000f3fe6080604052600436106100915760003560e01c80638da5cb5b116100595780638da5cb5b1461019357806397dffc61146101be578063e02a4dfd146101c8578063e68d3569146101f3578063f966ade7146101fd57610091565b806327e235e3146100965780632e1a7d4d146100d357806343f7f740146100fc5780635b72a33a1461012757806373b4086b14610152575b600080fd5b3480156100a257600080fd5b506100bd60048036038101906100b89190610a07565b610207565b6040516100ca9190610a4d565b60405180910390f35b3480156100df57600080fd5b506100fa60048036038101906100f59190610a94565b61021f565b005b34801561010857600080fd5b5061011161035a565b60405161011e9190610a4d565b60405180910390f35b34801561013357600080fd5b5061013c610360565b6040516101499190610a4d565b60405180910390f35b34801561015e57600080fd5b5061017960048036038101906101749190610a07565b610365565b60405161018a959493929190610aeb565b60405180910390f35b34801561019f57600080fd5b506101a86103c8565b6040516101b59190610b3e565b60405180910390f35b6101c66103ec565b005b3480156101d457600080fd5b506101dd6104ee565b6040516101ea9190610a4d565b60405180910390f35b6101fb6104f5565b005b6102056107ce565b005b60026020528060005260406000206000915090505481565b60008054906101000a900473ffffffffffffffffffffffffffffffffffffffff1673ffffffffffffffffffffffffffffffffffffffff163373ffffffffffffffffffffffffffffffffffffffff16146102ad576040517f08c379a00000000000000000000000000000000000000000000000000000000081526004016102a490610bdc565b60405180910390fd5b804710156102f0576040517f08c379a00000000000000000000000000000000000000000000000000000000081526004016102e790610c48565b60405180910390fd5b60008054906101000a900473ffffffffffffffffffffffffffffffffffffffff1673ffffffffffffffffffffffffffffffffffffffff166108fc829081150290604051600060405180830381858888f19350505050158015610356573d6000803e3d6000fd5b5050565b60015481565b600581565b60036020528060005260406000206000915090508060000160009054906101000a900473ffffffffffffffffffffffffffffffffffffffff16908060010154908060020154908060030154908060040160009054906101000a900460ff16905085565b60008054906101000a900473ffffffffffffffffffffffffffffffffffffffff1681565b6000341161042f576040517f08c379a000000000000000000000000000000000000000000000000000000000815260040161042690610cb4565b60405180910390fd5b34600260003373ffffffffffffffffffffffffffffffffffffffff1673ffffffffffffffffffffffffffffffffffffffff168152602001908152602001600020600082825461047e9190610d03565b9250508190555034600160008282546104979190610d03565b925050819055503373ffffffffffffffffffffffffffffffffffffffff167f26ff3f6dedac6d273c293b8c866e073f40896739d99ad513862fe7ba70cf63ca346040516104e49190610a4d565b60405180910390a2565b62278d0081565b60006014346105049190610d37565b905080600260003073ffffffffffffffffffffffffffffffffffffffff1673ffffffffffffffffffffffffffffffffffffffff168152602001908152602001600020541015610588576040517f08c379a000000000000000000000000000000000000000000000000000000000815260040161057f90610deb565b60405180910390fd5b6000600360003373ffffffffffffffffffffffffffffffffffffffff1673ffffffffffffffffffffffffffffffffffffffff168152602001908152602001600020600101541461060d576040517f08c379a000000000000000000000000000000000000000000000000000000000815260040161060490610e7d565b60405180910390fd5b6040518060a001604052803373ffffffffffffffffffffffffffffffffffffffff1681526020018281526020016005815260200162278d00426106509190610d03565b815260200160001515815250600360003373ffffffffffffffffffffffffffffffffffffffff1673ffffffffffffffffffffffffffffffffffffffff16815260200190815260200160002060008201518160000160006101000a81548173ffffffffffffffffffffffffffffffffffffffff021916908373ffffffffffffffffffffffffffffffffffffffff16021790555060208201518160010155604082015181600201556060820151816003015560808201518160040160006101000a81548160ff0219169083151502179055509050503373ffffffffffffffffffffffffffffffffffffffff166108fc829081150290604051600060405180830381858888f19350505050158015610769573d6000803e3d6000fd5b503373ffffffffffffffffffffffffffffffffffffffff167fc4381c9c7b508979896c55381c1cb8c2aef28d753cff7661f9cd87b9a14584f882600562278d00426107b49190610d03565b6040516107c393929190610e9d565b60405180910390a250565b6000600360003373ffffffffffffffffffffffffffffffffffffffff1673ffffffffffffffffffffffffffffffffffffffff16815260200190815260200160002090508060030154421115610858576040517f08c379a000000000000000000000000000000000000000000000000000000000815260040161084f90610f46565b60405180910390fd5b60006064826002015483600101546108709190610d37565b61087a9190610f95565b82600101546108899190610d03565b9050803410156108ce576040517f08c379a00000000000000000000000000000000000000000000000000000000081526004016108c590611038565b60405180910390fd5b60018260040160006101000a81548160ff02191690831515021790555060008054906101000a900473ffffffffffffffffffffffffffffffffffffffff1673ffffffffffffffffffffffffffffffffffffffff166108fc829081150290604051600060405180830381858888f19350505050158015610951573d6000803e3d6000fd5b503373ffffffffffffffffffffffffffffffffffffffff167f0516911bcc3a0a7412a44601057c0a0a1ec628bde049a84284bc428866534488826040516109989190610a4d565b60405180910390a25050565b600080fd5b600073ffffffffffffffffffffffffffffffffffffffff82169050919050565b60006109d4826109a9565b9050919050565b6109e4816109c9565b81146109ef57600080fd5b50565b600081359050610a01816109db565b92915050565b600060208284031215610a1d57610a1c6109a4565b5b6000610a2b848285016109f2565b91505092915050565b6000819050919050565b610a4781610a34565b82525050565b6000602082019050610a626000830184610a3e565b92915050565b610a7181610a34565b8114610a7c57600080fd5b50565b600081359050610a8e81610a68565b92915050565b600060208284031215610aaa57610aa96109a4565b5b6000610ab884828501610a7f565b91505092915050565b610aca816109c9565b82525050565b60008115159050919050565b610ae581610ad0565b82525050565b600060a082019050610b006000830188610ac1565b610b0d6020830187610a3e565b610b1a6040830186610a3e565b610b276060830185610a3e565b610b346080830184610adc565b9695505050505050565b6000602082019050610b536000830184610ac1565b92915050565b600082825260208201905092915050565b7f4f6e6c7920746865206f776e65722063616e20706572666f726d20746869732060008201527f616374696f6e2e00000000000000000000000000000000000000000000000000602082015250565b6000610bc6602783610b59565b9150610bd182610b6a565b604082019050919050565b60006020820190508181036000830152610bf581610bb9565b9050919050565b7f496e73756666696369656e742062616c616e63652e0000000000000000000000600082015250565b6000610c32601583610b59565b9150610c3d82610bfc565b602082019050919050565b60006020820190508181036000830152610c6181610c25565b9050919050565b7f596f75206e65656420746f2073656e6420736f6d652045746865722e00000000600082015250565b6000610c9e601c83610b59565b9150610ca982610c68565b602082019050919050565b60006020820190508181036000830152610ccd81610c91565b9050919050565b7f4e487b7100000000000000000000000000000000000000000000000000000000600052601160045260246000fd5b6000610d0e82610a34565b9150610d1983610a34565b9250828201905080821115610d3157610d30610cd4565b5b92915050565b6000610d4282610a34565b9150610d4d83610a34565b9250828202610d5b81610a34565b91508282048414831517610d7257610d71610cd4565b5b5092915050565b7f496e73756666696369656e742066756e647320696e2074686520636f6e74726160008201527f63742e0000000000000000000000000000000000000000000000000000000000602082015250565b6000610dd5602383610b59565b9150610de082610d79565b604082019050919050565b60006020820190508181036000830152610e0481610dc8565b9050919050565b7f4578697374696e67206c6f616e206d757374206265207265706169642066697260008201527f73742e0000000000000000000000000000000000000000000000000000000000602082015250565b6000610e67602383610b59565b9150610e7282610e0b565b604082019050919050565b60006020820190508181036000830152610e9681610e5a565b9050919050565b6000606082019050610eb26000830186610a3e565b610ebf6020830185610a3e565b610ecc6040830184610a3e565b949350505050565b7f4c6f616e2072657061796d656e7420706572696f64206861732065787069726560008201527f642e000000000000000000000000000000000000000000000000000000000000602082015250565b6000610f30602283610b59565b9150610f3b82610ed4565b604082019050919050565b60006020820190508181036000830152610f5f81610f23565b9050919050565b7f4e487b7100000000000000000000000000000000000000000000000000000000600052601260045260246000fd5b6000610fa082610a34565b9150610fab83610a34565b925082610fbb57610fba610f66565b5b828204905092915050565b7f496e73756666696369656e7420616d6f756e7420746f2072657061792074686560008201527f206c6f616e2e0000000000000000000000000000000000000000000000000000602082015250565b6000611022602683610b59565b915061102d82610fc6565b604082019050919050565b6000602082019050818103600083015261105181611015565b905091905056fea2646970667358221220f74e3a03b646ca5fd6ff2426306ec39c69b4916e90add8ca8ea01cdb299bd26164736f6c63430008140033",
  "linkReferences": {},
  "deployedLinkReferences": {}
}