{
  "_format": "hh-sol-artifact-1",
  "contractName": "PeerToPeerLending",
  "sourceName": "contracts/PeerToPeerLending.sol",
  "abi": [
    {
      "anonymous": false,
      "inputs": [
        {
          "indexed": false,
          "internalType": "uint256",
          "name": "loanId",
          "type": "uint256"
        },
        {
          "indexed": false,
          "internalType": "address",
          "name": "lender",
          "type": "address"
        }
      ],
      "name": "LoanFunded",
      "type": "event"
    },
    {
      "anonymous": false,
      "inputs": [
        {
          "indexed": false,
          "internalType": "uint256",
          "name": "loanId",
          "type": "uint256"
        },
        {
          "indexed": false,
          "internalType": "address",
          "name": "borrower",
          "type": "address"
        },
        {
          "indexed": false,
          "internalType": "uint256",
          "name": "amount",
          "type": "uint256"
        },
        {
          "indexed": false,
          "internalType": "uint256",
          "name": "interestRate",
          "type": "uint256"
        },
        {
          "indexed": false,
          "internalType": "uint256",
          "name": "dueDate",
          "type": "uint256"
        }
      ],
      "name": "LoanRequested",
      "type": "event"
    },
    {
      "anonymous": false,
      "inputs": [
        {
          "indexed": false,
          "internalType": "uint256",
          "name": "loanId",
          "type": "uint256"
        },
        {
          "indexed": false,
          "internalType": "uint256",
          "name": "amount",
          "type": "uint256"
        }
      ],
      "name": "RepaymentMade",
      "type": "event"
    },
    {
      "inputs": [
        {
          "internalType": "uint256",
          "name": "_loanId",
          "type": "uint256"
        }
      ],
      "name": "fundLoan",
      "outputs": [],
      "stateMutability": "payable",
      "type": "function"
    },
    {
      "inputs": [
        {
          "internalType": "address",
          "name": "borrower",
          "type": "address"
        }
      ],
      "name": "getAllBorrowedLoans",
      "outputs": [
        {
          "components": [
            {
              "internalType": "address",
              "name": "borrower",
              "type": "address"
            },
            {
              "internalType": "address",
              "name": "lender",
              "type": "address"
            },
            {
              "internalType": "uint256",
              "name": "amount",
              "type": "uint256"
            },
            {
              "internalType": "uint256",
              "name": "interestRate",
              "type": "uint256"
            },
            {
              "internalType": "uint256",
              "name": "dueDate",
              "type": "uint256"
            },
            {
              "internalType": "bool",
              "name": "funded",
              "type": "bool"
            }
          ],
          "internalType": "struct PeerToPeerLending.Loan[]",
          "name": "",
          "type": "tuple[]"
        }
      ],
      "stateMutability": "view",
      "type": "function"
    },
    {
      "inputs": [
        {
          "internalType": "address",
          "name": "lender",
          "type": "address"
        }
      ],
      "name": "getAllLendingLoans",
      "outputs": [
        {
          "components": [
            {
              "internalType": "address",
              "name": "borrower",
              "type": "address"
            },
            {
              "internalType": "address",
              "name": "lender",
              "type": "address"
            },
            {
              "internalType": "uint256",
              "name": "amount",
              "type": "uint256"
            },
            {
              "internalType": "uint256",
              "name": "interestRate",
              "type": "uint256"
            },
            {
              "internalType": "uint256",
              "name": "dueDate",
              "type": "uint256"
            },
            {
              "internalType": "bool",
              "name": "funded",
              "type": "bool"
            }
          ],
          "internalType": "struct PeerToPeerLending.Loan[]",
          "name": "",
          "type": "tuple[]"
        }
      ],
      "stateMutability": "view",
      "type": "function"
    },
    {
      "inputs": [],
      "name": "loanCounter",
      "outputs": [
        {
          "internalType": "uint256",
          "name": "",
          "type": "uint256"
        }
      ],
      "stateMutability": "view",
      "type": "function"
    },
    {
      "inputs": [
        {
          "internalType": "uint256",
          "name": "",
          "type": "uint256"
        }
      ],
      "name": "loans",
      "outputs": [
        {
          "internalType": "address",
          "name": "borrower",
          "type": "address"
        },
        {
          "internalType": "address",
          "name": "lender",
          "type": "address"
        },
        {
          "internalType": "uint256",
          "name": "amount",
          "type": "uint256"
        },
        {
          "internalType": "uint256",
          "name": "interestRate",
          "type": "uint256"
        },
        {
          "internalType": "uint256",
          "name": "dueDate",
          "type": "uint256"
        },
        {
          "internalType": "bool",
          "name": "funded",
          "type": "bool"
        }
      ],
      "stateMutability": "view",
      "type": "function"
    },
    {
      "inputs": [
        {
          "internalType": "uint256",
          "name": "_loanId",
          "type": "uint256"
        }
      ],
      "name": "repayLoan",
      "outputs": [],
      "stateMutability": "payable",
      "type": "function"
    },
    {
      "inputs": [
        {
          "internalType": "uint256",
          "name": "_amount",
          "type": "uint256"
        },
        {
          "internalType": "uint256",
          "name": "_interestRate",
          "type": "uint256"
        },
        {
          "internalType": "uint256",
          "name": "_loanDuration",
          "type": "uint256"
        }
      ],
      "name": "requestLoan",
      "outputs": [],
      "stateMutability": "nonpayable",
      "type": "function"
    }
  ],
  "bytecode": "0x60806040526000805534801561001457600080fd5b50611691806100246000396000f3fe6080604052600436106100705760003560e01c8063846b909a1161004e578063846b909a1461011a578063ab7b1c8914610136578063e1ec3c6814610152578063edadbbfe1461019457610070565b806334d9289e146100755780635e01ac81146100a0578063670f37bc146100dd575b600080fd5b34801561008157600080fd5b5061008a6101bd565b6040516100979190610e5d565b60405180910390f35b3480156100ac57600080fd5b506100c760048036038101906100c29190610edb565b6101c3565b6040516100d4919061106b565b60405180910390f35b3480156100e957600080fd5b5061010460048036038101906100ff9190610edb565b610483565b604051610111919061106b565b60405180910390f35b610134600480360381019061012f91906110b9565b610743565b005b610150600480360381019061014b91906110b9565b610941565b005b34801561015e57600080fd5b50610179600480360381019061017491906110b9565b610ba4565b60405161018b96959493929190611104565b60405180910390f35b3480156101a057600080fd5b506101bb60048036038101906101b69190611165565b610c2d565b005b60005481565b6060600080600190505b6000548111610261578373ffffffffffffffffffffffffffffffffffffffff166001600083815260200190815260200160002060000160009054906101000a900473ffffffffffffffffffffffffffffffffffffffff1673ffffffffffffffffffffffffffffffffffffffff160361024e57818061024a906111e7565b9250505b8080610259906111e7565b9150506101cd565b5060008167ffffffffffffffff81111561027e5761027d61122f565b5b6040519080825280602002602001820160405280156102b757816020015b6102a4610de0565b81526020019060019003908161029c5790505b509050600080600190505b6000548111610477578573ffffffffffffffffffffffffffffffffffffffff166001600083815260200190815260200160002060000160009054906101000a900473ffffffffffffffffffffffffffffffffffffffff1673ffffffffffffffffffffffffffffffffffffffff160361046457600160008281526020019081526020016000206040518060c00160405290816000820160009054906101000a900473ffffffffffffffffffffffffffffffffffffffff1673ffffffffffffffffffffffffffffffffffffffff1673ffffffffffffffffffffffffffffffffffffffff1681526020016001820160009054906101000a900473ffffffffffffffffffffffffffffffffffffffff1673ffffffffffffffffffffffffffffffffffffffff1673ffffffffffffffffffffffffffffffffffffffff1681526020016002820154815260200160038201548152602001600482015481526020016005820160009054906101000a900460ff16151515158152505083838151811061044a5761044961125e565b5b60200260200101819052508180610460906111e7565b9250505b808061046f906111e7565b9150506102c2565b50819350505050919050565b6060600080600190505b6000548111610521578373ffffffffffffffffffffffffffffffffffffffff166001600083815260200190815260200160002060010160009054906101000a900473ffffffffffffffffffffffffffffffffffffffff1673ffffffffffffffffffffffffffffffffffffffff160361050e57818061050a906111e7565b9250505b8080610519906111e7565b91505061048d565b5060008167ffffffffffffffff81111561053e5761053d61122f565b5b60405190808252806020026020018201604052801561057757816020015b610564610de0565b81526020019060019003908161055c5790505b509050600080600190505b6000548111610737578573ffffffffffffffffffffffffffffffffffffffff166001600083815260200190815260200160002060010160009054906101000a900473ffffffffffffffffffffffffffffffffffffffff1673ffffffffffffffffffffffffffffffffffffffff160361072457600160008281526020019081526020016000206040518060c00160405290816000820160009054906101000a900473ffffffffffffffffffffffffffffffffffffffff1673ffffffffffffffffffffffffffffffffffffffff1673ffffffffffffffffffffffffffffffffffffffff1681526020016001820160009054906101000a900473ffffffffffffffffffffffffffffffffffffffff1673ffffffffffffffffffffffffffffffffffffffff1673ffffffffffffffffffffffffffffffffffffffff1681526020016002820154815260200160038201548152602001600482015481526020016005820160009054906101000a900460ff16151515158152505083838151811061070a5761070961125e565b5b60200260200101819052508180610720906111e7565b9250505b808061072f906111e7565b915050610582565b50819350505050919050565b3460016000838152602001908152602001600020600201541461079b576040517f08c379a0000000000000000000000000000000000000000000000000000000008152600401610792906112ea565b60405180910390fd5b600015156001600083815260200190815260200160002060050160009054906101000a900460ff16151514610805576040517f08c379a00000000000000000000000000000000000000000000000000000000081526004016107fc90611356565b60405180910390fd5b336001600083815260200190815260200160002060010160006101000a81548173ffffffffffffffffffffffffffffffffffffffff021916908373ffffffffffffffffffffffffffffffffffffffff160217905550600180600083815260200190815260200160002060050160006101000a81548160ff0219169083151502179055506001600082815260200190815260200160002060000160009054906101000a900473ffffffffffffffffffffffffffffffffffffffff1673ffffffffffffffffffffffffffffffffffffffff166108fc349081150290604051600060405180830381858888f19350505050158015610904573d6000803e3d6000fd5b507f15feab5d3eb17171632762cf769709a315dd15f487a556c0dfb8a259c8f186cc8133604051610936929190611376565b60405180910390a150565b6001600082815260200190815260200160002060000160009054906101000a900473ffffffffffffffffffffffffffffffffffffffff1673ffffffffffffffffffffffffffffffffffffffff163373ffffffffffffffffffffffffffffffffffffffff16146109e5576040517f08c379a00000000000000000000000000000000000000000000000000000000081526004016109dc906113eb565b60405180910390fd5b6001600082815260200190815260200160002060040154421115610a3e576040517f08c379a0000000000000000000000000000000000000000000000000000000008152600401610a3590611457565b60405180910390fd5b6000606460016000848152602001908152602001600020600301546001600085815260200190815260200160002060020154610a7a9190611477565b610a8491906114e8565b6001600084815260200190815260200160002060020154610aa59190611519565b905080341015610aea576040517f08c379a0000000000000000000000000000000000000000000000000000000008152600401610ae1906115bf565b60405180910390fd5b6001600083815260200190815260200160002060010160009054906101000a900473ffffffffffffffffffffffffffffffffffffffff1673ffffffffffffffffffffffffffffffffffffffff166108fc829081150290604051600060405180830381858888f19350505050158015610b66573d6000803e3d6000fd5b507fd3337f372235c0c137836a45251cd21fba324e7ef27c7acc5ac12451491793b98282604051610b989291906115df565b60405180910390a15050565b60016020528060005260406000206000915090508060000160009054906101000a900473ffffffffffffffffffffffffffffffffffffffff16908060010160009054906101000a900473ffffffffffffffffffffffffffffffffffffffff16908060020154908060030154908060040154908060050160009054906101000a900460ff16905086565b600080815480929190610c3f906111e7565b91905055506040518060c001604052803373ffffffffffffffffffffffffffffffffffffffff168152602001600073ffffffffffffffffffffffffffffffffffffffff1681526020018481526020018381526020018242610ca09190611519565b815260200160001515815250600160008054815260200190815260200160002060008201518160000160006101000a81548173ffffffffffffffffffffffffffffffffffffffff021916908373ffffffffffffffffffffffffffffffffffffffff16021790555060208201518160010160006101000a81548173ffffffffffffffffffffffffffffffffffffffff021916908373ffffffffffffffffffffffffffffffffffffffff16021790555060408201518160020155606082015181600301556080820151816004015560a08201518160050160006101000a81548160ff0219169083151502179055509050507ff6cc19e46a340ab5888d736bfc79aef72ae92d12d7b76319d72b0abc170868e66000543385858542610dc29190611519565b604051610dd3959493929190611608565b60405180910390a1505050565b6040518060c00160405280600073ffffffffffffffffffffffffffffffffffffffff168152602001600073ffffffffffffffffffffffffffffffffffffffff1681526020016000815260200160008152602001600081526020016000151581525090565b6000819050919050565b610e5781610e44565b82525050565b6000602082019050610e726000830184610e4e565b92915050565b600080fd5b600073ffffffffffffffffffffffffffffffffffffffff82169050919050565b6000610ea882610e7d565b9050919050565b610eb881610e9d565b8114610ec357600080fd5b50565b600081359050610ed581610eaf565b92915050565b600060208284031215610ef157610ef0610e78565b5b6000610eff84828501610ec6565b91505092915050565b600081519050919050565b600082825260208201905092915050565b6000819050602082019050919050565b610f3d81610e9d565b82525050565b610f4c81610e44565b82525050565b60008115159050919050565b610f6781610f52565b82525050565b60c082016000820151610f836000850182610f34565b506020820151610f966020850182610f34565b506040820151610fa96040850182610f43565b506060820151610fbc6060850182610f43565b506080820151610fcf6080850182610f43565b5060a0820151610fe260a0850182610f5e565b50505050565b6000610ff48383610f6d565b60c08301905092915050565b6000602082019050919050565b600061101882610f08565b6110228185610f13565b935061102d83610f24565b8060005b8381101561105e5781516110458882610fe8565b975061105083611000565b925050600181019050611031565b5085935050505092915050565b60006020820190508181036000830152611085818461100d565b905092915050565b61109681610e44565b81146110a157600080fd5b50565b6000813590506110b38161108d565b92915050565b6000602082840312156110cf576110ce610e78565b5b60006110dd848285016110a4565b91505092915050565b6110ef81610e9d565b82525050565b6110fe81610f52565b82525050565b600060c08201905061111960008301896110e6565b61112660208301886110e6565b6111336040830187610e4e565b6111406060830186610e4e565b61114d6080830185610e4e565b61115a60a08301846110f5565b979650505050505050565b60008060006060848603121561117e5761117d610e78565b5b600061118c868287016110a4565b935050602061119d868287016110a4565b92505060406111ae868287016110a4565b9150509250925092565b7f4e487b7100000000000000000000000000000000000000000000000000000000600052601160045260246000fd5b60006111f282610e44565b91507fffffffffffffffffffffffffffffffffffffffffffffffffffffffffffffffff8203611224576112236111b8565b5b600182019050919050565b7f4e487b7100000000000000000000000000000000000000000000000000000000600052604160045260246000fd5b7f4e487b7100000000000000000000000000000000000000000000000000000000600052603260045260246000fd5b600082825260208201905092915050565b7f496e636f727265637420616d6f756e74207472616e7366657272656400000000600082015250565b60006112d4601c8361128d565b91506112df8261129e565b602082019050919050565b60006020820190508181036000830152611303816112c7565b9050919050565b7f4c6f616e20616c72656164792066756e64656400000000000000000000000000600082015250565b600061134060138361128d565b915061134b8261130a565b602082019050919050565b6000602082019050818103600083015261136f81611333565b9050919050565b600060408201905061138b6000830185610e4e565b61139860208301846110e6565b9392505050565b7f4f6e6c792074686520626f72726f7765722063616e2072657061790000000000600082015250565b60006113d5601b8361128d565b91506113e08261139f565b602082019050919050565b60006020820190508181036000830152611404816113c8565b9050919050565b7f4c6f616e20647565206461746520686173207061737365640000000000000000600082015250565b600061144160188361128d565b915061144c8261140b565b602082019050919050565b6000602082019050818103600083015261147081611434565b9050919050565b600061148282610e44565b915061148d83610e44565b925082820261149b81610e44565b915082820484148315176114b2576114b16111b8565b5b5092915050565b7f4e487b7100000000000000000000000000000000000000000000000000000000600052601260045260246000fd5b60006114f382610e44565b91506114fe83610e44565b92508261150e5761150d6114b9565b5b828204905092915050565b600061152482610e44565b915061152f83610e44565b9250828201905080821115611547576115466111b8565b5b92915050565b7f496e73756666696369656e7420616d6f756e7420746f2072657061792074686560008201527f206c6f616e000000000000000000000000000000000000000000000000000000602082015250565b60006115a960258361128d565b91506115b48261154d565b604082019050919050565b600060208201905081810360008301526115d88161159c565b9050919050565b60006040820190506115f46000830185610e4e565b6116016020830184610e4e565b9392505050565b600060a08201905061161d6000830188610e4e565b61162a60208301876110e6565b6116376040830186610e4e565b6116446060830185610e4e565b6116516080830184610e4e565b969550505050505056fea2646970667358221220cd9041c0d09c1bd6233c4eceae18b61e9c1f85c78d78dbcd18546d89fa827a5d64736f6c63430008140033",
  "linkReferences": {},
  "deployedLinkReferences": {}
}