{
  "contracts/LiquidityPool.sol": {
    "LiquidityPoolWithInterest": {
      "abi": [
        {
          "inputs": [],
          "stateMutability": "nonpayable",
          "type": "constructor"
        },
        {
          "inputs": [],
          "name": "ReentrancyGuardReentrantCall",
          "type": "error"
        },
        {
          "anonymous": false,
          "inputs": [
            {
              "indexed": true,
              "internalType": "address",
              "name": "user",
              "type": "address"
            },
            {
              "indexed": false,
              "internalType": "uint256",
              "name": "ethAmount",
              "type": "uint256"
            },
            {
              "indexed": false,
              "internalType": "uint256",
              "name": "mtAmount",
              "type": "uint256"
            }
          ],
          "name": "Deposited",
          "type": "event"
        },
        {
          "anonymous": false,
          "inputs": [
            {
              "indexed": true,
              "internalType": "address",
              "name": "user",
              "type": "address"
            },
            {
              "indexed": false,
              "internalType": "uint256",
              "name": "ethAmount",
              "type": "uint256"
            },
            {
              "indexed": false,
              "internalType": "uint256",
              "name": "mtAmount",
              "type": "uint256"
            }
          ],
          "name": "Withdrawn",
          "type": "event"
        },
        {
          "inputs": [],
          "name": "depositETH",
          "outputs": [],
          "stateMutability": "payable",
          "type": "function"
        },
        {
          "inputs": [],
          "name": "interestAccrualPeriod",
          "outputs": [
            {
              "internalType": "uint256",
              "name": "",
              "type": "uint256"
            }
          ],
          "stateMutability": "view",
          "type": "function"
        },
        {
          "inputs": [],
          "name": "interestRatePerPeriod",
          "outputs": [
            {
              "internalType": "uint256",
              "name": "",
              "type": "uint256"
            }
          ],
          "stateMutability": "view",
          "type": "function"
        },
        {
          "inputs": [],
          "name": "lastInterestUpdateTime",
          "outputs": [
            {
              "internalType": "uint256",
              "name": "",
              "type": "uint256"
            }
          ],
          "stateMutability": "view",
          "type": "function"
        },
        {
          "inputs": [],
          "name": "mtToken",
          "outputs": [
            {
              "internalType": "contract IMTToken",
              "name": "",
              "type": "address"
            }
          ],
          "stateMutability": "view",
          "type": "function"
        },
        {
          "inputs": [],
          "name": "totalETHDeposited",
          "outputs": [
            {
              "internalType": "uint256",
              "name": "",
              "type": "uint256"
            }
          ],
          "stateMutability": "view",
          "type": "function"
        },
        {
          "inputs": [],
          "name": "updateInterest",
          "outputs": [],
          "stateMutability": "nonpayable",
          "type": "function"
        },
        {
          "inputs": [
            {
              "internalType": "uint256",
              "name": "mtTokenAmount",
              "type": "uint256"
            }
          ],
          "name": "withdrawETH",
          "outputs": [],
          "stateMutability": "nonpayable",
          "type": "function"
        },
        {
          "stateMutability": "payable",
          "type": "receive"
        }
      ],
      "evm": {
        "bytecode": {
          "linkReferences": {},
          "object": "60806040526103e86003556005600455426005556201518060065534801561002657600080fd5b50600160008190555060007345f0118a78a03cee83d82e0c8c5fa1579543eb67905080600160006101000a81548173ffffffffffffffffffffffffffffffffffffffff021916908373ffffffffffffffffffffffffffffffffffffffff16021790555050610ad3806100996000396000f3fe60806040526004361061007f5760003560e01c8063d14827911161004e578063d148279114610137578063f14210a61461014e578063f511b6f714610177578063f6326fb3146101a257610086565b806345b87e1d1461008b5780637b2c9070146100b657806381ea810d146100e1578063ad1dd0701461010c57610086565b3661008657005b600080fd5b34801561009757600080fd5b506100a06101ac565b6040516100ad9190610641565b60405180910390f35b3480156100c257600080fd5b506100cb6101b2565b6040516100d89190610641565b60405180910390f35b3480156100ed57600080fd5b506100f66101b8565b6040516101039190610641565b60405180910390f35b34801561011857600080fd5b506101216101be565b60405161012e91906106db565b60405180910390f35b34801561014357600080fd5b5061014c6101e4565b005b34801561015a57600080fd5b5061017560048036038101906101709190610727565b610290565b005b34801561018357600080fd5b5061018c61046a565b6040516101999190610641565b60405180910390f35b6101aa610470565b005b60055481565b60025481565b60045481565b600160009054906101000a900473ffffffffffffffffffffffffffffffffffffffff1681565b6006546005546101f49190610783565b421061028e5760006006546005544261020d91906107b7565b610217919061081a565b905060005b8181101561026557606460045460646102359190610783565b600354610242919061084b565b61024c919061081a565b600381905550808061025d9061088d565b91505061021c565b5060065481610274919061084b565b600560008282546102859190610783565b92505081905550505b565b6102986105d8565b600081116102db576040517f08c379a00000000000000000000000000000000000000000000000000000000081526004016102d290610932565b60405180910390fd5b6102e36101e4565b6000600354826102f3919061081a565b905080471015610338576040517f08c379a000000000000000000000000000000000000000000000000000000000815260040161032f9061099e565b60405180910390fd5b600160009054906101000a900473ffffffffffffffffffffffffffffffffffffffff1673ffffffffffffffffffffffffffffffffffffffff16639dc29fac33846040518363ffffffff1660e01b81526004016103959291906109df565b600060405180830381600087803b1580156103af57600080fd5b505af11580156103c3573d6000803e3d6000fd5b505050503373ffffffffffffffffffffffffffffffffffffffff166108fc829081150290604051600060405180830381858888f1935050505015801561040d573d6000803e3d6000fd5b503373ffffffffffffffffffffffffffffffffffffffff167f92ccf450a286a957af52509bc1c9939d1a6a481783e142e41e2499f0bb66ebc68284604051610456929190610a08565b60405180910390a25061046761061e565b50565b60065481565b6104786105d8565b600034116104bb576040517f08c379a00000000000000000000000000000000000000000000000000000000081526004016104b290610a7d565b60405180910390fd5b6104c36101e4565b6000600354346104d3919061084b565b9050600160009054906101000a900473ffffffffffffffffffffffffffffffffffffffff1673ffffffffffffffffffffffffffffffffffffffff166340c10f1933836040518363ffffffff1660e01b81526004016105329291906109df565b600060405180830381600087803b15801561054c57600080fd5b505af1158015610560573d6000803e3d6000fd5b5050505034600260008282546105769190610783565b925050819055503373ffffffffffffffffffffffffffffffffffffffff167f73a19dd210f1a7f902193214c0ee91dd35ee5b4d920cba8d519eca65a7b488ca34836040516105c5929190610a08565b60405180910390a2506105d661061e565b565b600260005403610614576040517f3ee5aeb500000000000000000000000000000000000000000000000000000000815260040160405180910390fd5b6002600081905550565b6001600081905550565b6000819050919050565b61063b81610628565b82525050565b60006020820190506106566000830184610632565b92915050565b600073ffffffffffffffffffffffffffffffffffffffff82169050919050565b6000819050919050565b60006106a161069c6106978461065c565b61067c565b61065c565b9050919050565b60006106b382610686565b9050919050565b60006106c5826106a8565b9050919050565b6106d5816106ba565b82525050565b60006020820190506106f060008301846106cc565b92915050565b600080fd5b61070481610628565b811461070f57600080fd5b50565b600081359050610721816106fb565b92915050565b60006020828403121561073d5761073c6106f6565b5b600061074b84828501610712565b91505092915050565b7f4e487b7100000000000000000000000000000000000000000000000000000000600052601160045260246000fd5b600061078e82610628565b915061079983610628565b92508282019050808211156107b1576107b0610754565b5b92915050565b60006107c282610628565b91506107cd83610628565b92508282039050818111156107e5576107e4610754565b5b92915050565b7f4e487b7100000000000000000000000000000000000000000000000000000000600052601260045260246000fd5b600061082582610628565b915061083083610628565b9250826108405761083f6107eb565b5b828204905092915050565b600061085682610628565b915061086183610628565b925082820261086f81610628565b9150828204841483151761088657610885610754565b5b5092915050565b600061089882610628565b91507fffffffffffffffffffffffffffffffffffffffffffffffffffffffffffffffff82036108ca576108c9610754565b5b600182019050919050565b600082825260208201905092915050565b7f43616e6e6f742077697468647261772030204d5420746f6b656e730000000000600082015250565b600061091c601b836108d5565b9150610927826108e6565b602082019050919050565b6000602082019050818103600083015261094b8161090f565b9050919050565b7f496e73756666696369656e742045544820696e20706f6f6c0000000000000000600082015250565b60006109886018836108d5565b915061099382610952565b602082019050919050565b600060208201905081810360008301526109b78161097b565b9050919050565b60006109c98261065c565b9050919050565b6109d9816109be565b82525050565b60006040820190506109f460008301856109d0565b610a016020830184610632565b9392505050565b6000604082019050610a1d6000830185610632565b610a2a6020830184610632565b9392505050565b7f43616e6e6f74206465706f736974203020455448000000000000000000000000600082015250565b6000610a676014836108d5565b9150610a7282610a31565b602082019050919050565b60006020820190508181036000830152610a9681610a5a565b905091905056fea2646970667358221220a6a8faf2f4085d244b20f0558a33f67a453d4eea5015dadbd269cd93c9cf2f6c64736f6c63430008140033",
          "opcodes": "PUSH1 0x80 PUSH1 0x40 MSTORE PUSH2 0x3E8 PUSH1 0x3 SSTORE PUSH1 0x5 PUSH1 0x4 SSTORE TIMESTAMP PUSH1 0x5 SSTORE PUSH3 0x15180 PUSH1 0x6 SSTORE CALLVALUE DUP1 ISZERO PUSH2 0x26 JUMPI PUSH1 0x0 DUP1 REVERT JUMPDEST POP PUSH1 0x1 PUSH1 0x0 DUP2 SWAP1 SSTORE POP PUSH1 0x0 PUSH20 0x45F0118A78A03CEE83D82E0C8C5FA1579543EB67 SWAP1 POP DUP1 PUSH1 0x1 PUSH1 0x0 PUSH2 0x100 EXP DUP2 SLOAD DUP2 PUSH20 0xFFFFFFFFFFFFFFFFFFFFFFFFFFFFFFFFFFFFFFFF MUL NOT AND SWAP1 DUP4 PUSH20 0xFFFFFFFFFFFFFFFFFFFFFFFFFFFFFFFFFFFFFFFF AND MUL OR SWAP1 SSTORE POP POP PUSH2 0xAD3 DUP1 PUSH2 0x99 PUSH1 0x0 CODECOPY PUSH1 0x0 RETURN INVALID PUSH1 0x80 PUSH1 0x40 MSTORE PUSH1 0x4 CALLDATASIZE LT PUSH2 0x7F JUMPI PUSH1 0x0 CALLDATALOAD PUSH1 0xE0 SHR DUP1 PUSH4 0xD1482791 GT PUSH2 0x4E JUMPI DUP1 PUSH4 0xD1482791 EQ PUSH2 0x137 JUMPI DUP1 PUSH4 0xF14210A6 EQ PUSH2 0x14E JUMPI DUP1 PUSH4 0xF511B6F7 EQ PUSH2 0x177 JUMPI DUP1 PUSH4 0xF6326FB3 EQ PUSH2 0x1A2 JUMPI PUSH2 0x86 JUMP JUMPDEST DUP1 PUSH4 0x45B87E1D EQ PUSH2 0x8B JUMPI DUP1 PUSH4 0x7B2C9070 EQ PUSH2 0xB6 JUMPI DUP1 PUSH4 0x81EA810D EQ PUSH2 0xE1 JUMPI DUP1 PUSH4 0xAD1DD070 EQ PUSH2 0x10C JUMPI PUSH2 0x86 JUMP JUMPDEST CALLDATASIZE PUSH2 0x86 JUMPI STOP JUMPDEST PUSH1 0x0 DUP1 REVERT JUMPDEST CALLVALUE DUP1 ISZERO PUSH2 0x97 JUMPI PUSH1 0x0 DUP1 REVERT JUMPDEST POP PUSH2 0xA0 PUSH2 0x1AC JUMP JUMPDEST PUSH1 0x40 MLOAD PUSH2 0xAD SWAP2 SWAP1 PUSH2 0x641 JUMP JUMPDEST PUSH1 0x40 MLOAD DUP1 SWAP2 SUB SWAP1 RETURN JUMPDEST CALLVALUE DUP1 ISZERO PUSH2 0xC2 JUMPI PUSH1 0x0 DUP1 REVERT JUMPDEST POP PUSH2 0xCB PUSH2 0x1B2 JUMP JUMPDEST PUSH1 0x40 MLOAD PUSH2 0xD8 SWAP2 SWAP1 PUSH2 0x641 JUMP JUMPDEST PUSH1 0x40 MLOAD DUP1 SWAP2 SUB SWAP1 RETURN JUMPDEST CALLVALUE DUP1 ISZERO PUSH2 0xED JUMPI PUSH1 0x0 DUP1 REVERT JUMPDEST POP PUSH2 0xF6 PUSH2 0x1B8 JUMP JUMPDEST PUSH1 0x40 MLOAD PUSH2 0x103 SWAP2 SWAP1 PUSH2 0x641 JUMP JUMPDEST PUSH1 0x40 MLOAD DUP1 SWAP2 SUB SWAP1 RETURN JUMPDEST CALLVALUE DUP1 ISZERO PUSH2 0x118 JUMPI PUSH1 0x0 DUP1 REVERT JUMPDEST POP PUSH2 0x121 PUSH2 0x1BE JUMP JUMPDEST PUSH1 0x40 MLOAD PUSH2 0x12E SWAP2 SWAP1 PUSH2 0x6DB JUMP JUMPDEST PUSH1 0x40 MLOAD DUP1 SWAP2 SUB SWAP1 RETURN JUMPDEST CALLVALUE DUP1 ISZERO PUSH2 0x143 JUMPI PUSH1 0x0 DUP1 REVERT JUMPDEST POP PUSH2 0x14C PUSH2 0x1E4 JUMP JUMPDEST STOP JUMPDEST CALLVALUE DUP1 ISZERO PUSH2 0x15A JUMPI PUSH1 0x0 DUP1 REVERT JUMPDEST POP PUSH2 0x175 PUSH1 0x4 DUP1 CALLDATASIZE SUB DUP2 ADD SWAP1 PUSH2 0x170 SWAP2 SWAP1 PUSH2 0x727 JUMP JUMPDEST PUSH2 0x290 JUMP JUMPDEST STOP JUMPDEST CALLVALUE DUP1 ISZERO PUSH2 0x183 JUMPI PUSH1 0x0 DUP1 REVERT JUMPDEST POP PUSH2 0x18C PUSH2 0x46A JUMP JUMPDEST PUSH1 0x40 MLOAD PUSH2 0x199 SWAP2 SWAP1 PUSH2 0x641 JUMP JUMPDEST PUSH1 0x40 MLOAD DUP1 SWAP2 SUB SWAP1 RETURN JUMPDEST PUSH2 0x1AA PUSH2 0x470 JUMP JUMPDEST STOP JUMPDEST PUSH1 0x5 SLOAD DUP2 JUMP JUMPDEST PUSH1 0x2 SLOAD DUP2 JUMP JUMPDEST PUSH1 0x4 SLOAD DUP2 JUMP JUMPDEST PUSH1 0x1 PUSH1 0x0 SWAP1 SLOAD SWAP1 PUSH2 0x100 EXP SWAP1 DIV PUSH20 0xFFFFFFFFFFFFFFFFFFFFFFFFFFFFFFFFFFFFFFFF AND DUP2 JUMP JUMPDEST PUSH1 0x6 SLOAD PUSH1 0x5 SLOAD PUSH2 0x1F4 SWAP2 SWAP1 PUSH2 0x783 JUMP JUMPDEST TIMESTAMP LT PUSH2 0x28E JUMPI PUSH1 0x0 PUSH1 0x6 SLOAD PUSH1 0x5 SLOAD TIMESTAMP PUSH2 0x20D SWAP2 SWAP1 PUSH2 0x7B7 JUMP JUMPDEST PUSH2 0x217 SWAP2 SWAP1 PUSH2 0x81A JUMP JUMPDEST SWAP1 POP PUSH1 0x0 JUMPDEST DUP2 DUP2 LT ISZERO PUSH2 0x265 JUMPI PUSH1 0x64 PUSH1 0x4 SLOAD PUSH1 0x64 PUSH2 0x235 SWAP2 SWAP1 PUSH2 0x783 JUMP JUMPDEST PUSH1 0x3 SLOAD PUSH2 0x242 SWAP2 SWAP1 PUSH2 0x84B JUMP JUMPDEST PUSH2 0x24C SWAP2 SWAP1 PUSH2 0x81A JUMP JUMPDEST PUSH1 0x3 DUP2 SWAP1 SSTORE POP DUP1 DUP1 PUSH2 0x25D SWAP1 PUSH2 0x88D JUMP JUMPDEST SWAP2 POP POP PUSH2 0x21C JUMP JUMPDEST POP PUSH1 0x6 SLOAD DUP2 PUSH2 0x274 SWAP2 SWAP1 PUSH2 0x84B JUMP JUMPDEST PUSH1 0x5 PUSH1 0x0 DUP3 DUP3 SLOAD PUSH2 0x285 SWAP2 SWAP1 PUSH2 0x783 JUMP JUMPDEST SWAP3 POP POP DUP2 SWAP1 SSTORE POP POP JUMPDEST JUMP JUMPDEST PUSH2 0x298 PUSH2 0x5D8 JUMP JUMPDEST PUSH1 0x0 DUP2 GT PUSH2 0x2DB JUMPI PUSH1 0x40 MLOAD PUSH32 0x8C379A000000000000000000000000000000000000000000000000000000000 DUP2 MSTORE PUSH1 0x4 ADD PUSH2 0x2D2 SWAP1 PUSH2 0x932 JUMP JUMPDEST PUSH1 0x40 MLOAD DUP1 SWAP2 SUB SWAP1 REVERT JUMPDEST PUSH2 0x2E3 PUSH2 0x1E4 JUMP JUMPDEST PUSH1 0x0 PUSH1 0x3 SLOAD DUP3 PUSH2 0x2F3 SWAP2 SWAP1 PUSH2 0x81A JUMP JUMPDEST SWAP1 POP DUP1 SELFBALANCE LT ISZERO PUSH2 0x338 JUMPI PUSH1 0x40 MLOAD PUSH32 0x8C379A000000000000000000000000000000000000000000000000000000000 DUP2 MSTORE PUSH1 0x4 ADD PUSH2 0x32F SWAP1 PUSH2 0x99E JUMP JUMPDEST PUSH1 0x40 MLOAD DUP1 SWAP2 SUB SWAP1 REVERT JUMPDEST PUSH1 0x1 PUSH1 0x0 SWAP1 SLOAD SWAP1 PUSH2 0x100 EXP SWAP1 DIV PUSH20 0xFFFFFFFFFFFFFFFFFFFFFFFFFFFFFFFFFFFFFFFF AND PUSH20 0xFFFFFFFFFFFFFFFFFFFFFFFFFFFFFFFFFFFFFFFF AND PUSH4 0x9DC29FAC CALLER DUP5 PUSH1 0x40 MLOAD DUP4 PUSH4 0xFFFFFFFF AND PUSH1 0xE0 SHL DUP2 MSTORE PUSH1 0x4 ADD PUSH2 0x395 SWAP3 SWAP2 SWAP1 PUSH2 0x9DF JUMP JUMPDEST PUSH1 0x0 PUSH1 0x40 MLOAD DUP1 DUP4 SUB DUP2 PUSH1 0x0 DUP8 DUP1 EXTCODESIZE ISZERO DUP1 ISZERO PUSH2 0x3AF JUMPI PUSH1 0x0 DUP1 REVERT JUMPDEST POP GAS CALL ISZERO DUP1 ISZERO PUSH2 0x3C3 JUMPI RETURNDATASIZE PUSH1 0x0 DUP1 RETURNDATACOPY RETURNDATASIZE PUSH1 0x0 REVERT JUMPDEST POP POP POP POP CALLER PUSH20 0xFFFFFFFFFFFFFFFFFFFFFFFFFFFFFFFFFFFFFFFF AND PUSH2 0x8FC DUP3 SWAP1 DUP2 ISZERO MUL SWAP1 PUSH1 0x40 MLOAD PUSH1 0x0 PUSH1 0x40 MLOAD DUP1 DUP4 SUB DUP2 DUP6 DUP9 DUP9 CALL SWAP4 POP POP POP POP ISZERO DUP1 ISZERO PUSH2 0x40D JUMPI RETURNDATASIZE PUSH1 0x0 DUP1 RETURNDATACOPY RETURNDATASIZE PUSH1 0x0 REVERT JUMPDEST POP CALLER PUSH20 0xFFFFFFFFFFFFFFFFFFFFFFFFFFFFFFFFFFFFFFFF AND PUSH32 0x92CCF450A286A957AF52509BC1C9939D1A6A481783E142E41E2499F0BB66EBC6 DUP3 DUP5 PUSH1 0x40 MLOAD PUSH2 0x456 SWAP3 SWAP2 SWAP1 PUSH2 0xA08 JUMP JUMPDEST PUSH1 0x40 MLOAD DUP1 SWAP2 SUB SWAP1 LOG2 POP PUSH2 0x467 PUSH2 0x61E JUMP JUMPDEST POP JUMP JUMPDEST PUSH1 0x6 SLOAD DUP2 JUMP JUMPDEST PUSH2 0x478 PUSH2 0x5D8 JUMP JUMPDEST PUSH1 0x0 CALLVALUE GT PUSH2 0x4BB JUMPI PUSH1 0x40 MLOAD PUSH32 0x8C379A000000000000000000000000000000000000000000000000000000000 DUP2 MSTORE PUSH1 0x4 ADD PUSH2 0x4B2 SWAP1 PUSH2 0xA7D JUMP JUMPDEST PUSH1 0x40 MLOAD DUP1 SWAP2 SUB SWAP1 REVERT JUMPDEST PUSH2 0x4C3 PUSH2 0x1E4 JUMP JUMPDEST PUSH1 0x0 PUSH1 0x3 SLOAD CALLVALUE PUSH2 0x4D3 SWAP2 SWAP1 PUSH2 0x84B JUMP JUMPDEST SWAP1 POP PUSH1 0x1 PUSH1 0x0 SWAP1 SLOAD SWAP1 PUSH2 0x100 EXP SWAP1 DIV PUSH20 0xFFFFFFFFFFFFFFFFFFFFFFFFFFFFFFFFFFFFFFFF AND PUSH20 0xFFFFFFFFFFFFFFFFFFFFFFFFFFFFFFFFFFFFFFFF AND PUSH4 0x40C10F19 CALLER DUP4 PUSH1 0x40 MLOAD DUP4 PUSH4 0xFFFFFFFF AND PUSH1 0xE0 SHL DUP2 MSTORE PUSH1 0x4 ADD PUSH2 0x532 SWAP3 SWAP2 SWAP1 PUSH2 0x9DF JUMP JUMPDEST PUSH1 0x0 PUSH1 0x40 MLOAD DUP1 DUP4 SUB DUP2 PUSH1 0x0 DUP8 DUP1 EXTCODESIZE ISZERO DUP1 ISZERO PUSH2 0x54C JUMPI PUSH1 0x0 DUP1 REVERT JUMPDEST POP GAS CALL ISZERO DUP1 ISZERO PUSH2 0x560 JUMPI RETURNDATASIZE PUSH1 0x0 DUP1 RETURNDATACOPY RETURNDATASIZE PUSH1 0x0 REVERT JUMPDEST POP POP POP POP CALLVALUE PUSH1 0x2 PUSH1 0x0 DUP3 DUP3 SLOAD PUSH2 0x576 SWAP2 SWAP1 PUSH2 0x783 JUMP JUMPDEST SWAP3 POP POP DUP2 SWAP1 SSTORE POP CALLER PUSH20 0xFFFFFFFFFFFFFFFFFFFFFFFFFFFFFFFFFFFFFFFF AND PUSH32 0x73A19DD210F1A7F902193214C0EE91DD35EE5B4D920CBA8D519ECA65A7B488CA CALLVALUE DUP4 PUSH1 0x40 MLOAD PUSH2 0x5C5 SWAP3 SWAP2 SWAP1 PUSH2 0xA08 JUMP JUMPDEST PUSH1 0x40 MLOAD DUP1 SWAP2 SUB SWAP1 LOG2 POP PUSH2 0x5D6 PUSH2 0x61E JUMP JUMPDEST JUMP JUMPDEST PUSH1 0x2 PUSH1 0x0 SLOAD SUB PUSH2 0x614 JUMPI PUSH1 0x40 MLOAD PUSH32 0x3EE5AEB500000000000000000000000000000000000000000000000000000000 DUP2 MSTORE PUSH1 0x4 ADD PUSH1 0x40 MLOAD DUP1 SWAP2 SUB SWAP1 REVERT JUMPDEST PUSH1 0x2 PUSH1 0x0 DUP2 SWAP1 SSTORE POP JUMP JUMPDEST PUSH1 0x1 PUSH1 0x0 DUP2 SWAP1 SSTORE POP JUMP JUMPDEST PUSH1 0x0 DUP2 SWAP1 POP SWAP2 SWAP1 POP JUMP JUMPDEST PUSH2 0x63B DUP2 PUSH2 0x628 JUMP JUMPDEST DUP3 MSTORE POP POP JUMP JUMPDEST PUSH1 0x0 PUSH1 0x20 DUP3 ADD SWAP1 POP PUSH2 0x656 PUSH1 0x0 DUP4 ADD DUP5 PUSH2 0x632 JUMP JUMPDEST SWAP3 SWAP2 POP POP JUMP JUMPDEST PUSH1 0x0 PUSH20 0xFFFFFFFFFFFFFFFFFFFFFFFFFFFFFFFFFFFFFFFF DUP3 AND SWAP1 POP SWAP2 SWAP1 POP JUMP JUMPDEST PUSH1 0x0 DUP2 SWAP1 POP SWAP2 SWAP1 POP JUMP JUMPDEST PUSH1 0x0 PUSH2 0x6A1 PUSH2 0x69C PUSH2 0x697 DUP5 PUSH2 0x65C JUMP JUMPDEST PUSH2 0x67C JUMP JUMPDEST PUSH2 0x65C JUMP JUMPDEST SWAP1 POP SWAP2 SWAP1 POP JUMP JUMPDEST PUSH1 0x0 PUSH2 0x6B3 DUP3 PUSH2 0x686 JUMP JUMPDEST SWAP1 POP SWAP2 SWAP1 POP JUMP JUMPDEST PUSH1 0x0 PUSH2 0x6C5 DUP3 PUSH2 0x6A8 JUMP JUMPDEST SWAP1 POP SWAP2 SWAP1 POP JUMP JUMPDEST PUSH2 0x6D5 DUP2 PUSH2 0x6BA JUMP JUMPDEST DUP3 MSTORE POP POP JUMP JUMPDEST PUSH1 0x0 PUSH1 0x20 DUP3 ADD SWAP1 POP PUSH2 0x6F0 PUSH1 0x0 DUP4 ADD DUP5 PUSH2 0x6CC JUMP JUMPDEST SWAP3 SWAP2 POP POP JUMP JUMPDEST PUSH1 0x0 DUP1 REVERT JUMPDEST PUSH2 0x704 DUP2 PUSH2 0x628 JUMP JUMPDEST DUP2 EQ PUSH2 0x70F JUMPI PUSH1 0x0 DUP1 REVERT JUMPDEST POP JUMP JUMPDEST PUSH1 0x0 DUP2 CALLDATALOAD SWAP1 POP PUSH2 0x721 DUP2 PUSH2 0x6FB JUMP JUMPDEST SWAP3 SWAP2 POP POP JUMP JUMPDEST PUSH1 0x0 PUSH1 0x20 DUP3 DUP5 SUB SLT ISZERO PUSH2 0x73D JUMPI PUSH2 0x73C PUSH2 0x6F6 JUMP JUMPDEST JUMPDEST PUSH1 0x0 PUSH2 0x74B DUP5 DUP3 DUP6 ADD PUSH2 0x712 JUMP JUMPDEST SWAP2 POP POP SWAP3 SWAP2 POP POP JUMP JUMPDEST PUSH32 0x4E487B7100000000000000000000000000000000000000000000000000000000 PUSH1 0x0 MSTORE PUSH1 0x11 PUSH1 0x4 MSTORE PUSH1 0x24 PUSH1 0x0 REVERT JUMPDEST PUSH1 0x0 PUSH2 0x78E DUP3 PUSH2 0x628 JUMP JUMPDEST SWAP2 POP PUSH2 0x799 DUP4 PUSH2 0x628 JUMP JUMPDEST SWAP3 POP DUP3 DUP3 ADD SWAP1 POP DUP1 DUP3 GT ISZERO PUSH2 0x7B1 JUMPI PUSH2 0x7B0 PUSH2 0x754 JUMP JUMPDEST JUMPDEST SWAP3 SWAP2 POP POP JUMP JUMPDEST PUSH1 0x0 PUSH2 0x7C2 DUP3 PUSH2 0x628 JUMP JUMPDEST SWAP2 POP PUSH2 0x7CD DUP4 PUSH2 0x628 JUMP JUMPDEST SWAP3 POP DUP3 DUP3 SUB SWAP1 POP DUP2 DUP2 GT ISZERO PUSH2 0x7E5 JUMPI PUSH2 0x7E4 PUSH2 0x754 JUMP JUMPDEST JUMPDEST SWAP3 SWAP2 POP POP JUMP JUMPDEST PUSH32 0x4E487B7100000000000000000000000000000000000000000000000000000000 PUSH1 0x0 MSTORE PUSH1 0x12 PUSH1 0x4 MSTORE PUSH1 0x24 PUSH1 0x0 REVERT JUMPDEST PUSH1 0x0 PUSH2 0x825 DUP3 PUSH2 0x628 JUMP JUMPDEST SWAP2 POP PUSH2 0x830 DUP4 PUSH2 0x628 JUMP JUMPDEST SWAP3 POP DUP3 PUSH2 0x840 JUMPI PUSH2 0x83F PUSH2 0x7EB JUMP JUMPDEST JUMPDEST DUP3 DUP3 DIV SWAP1 POP SWAP3 SWAP2 POP POP JUMP JUMPDEST PUSH1 0x0 PUSH2 0x856 DUP3 PUSH2 0x628 JUMP JUMPDEST SWAP2 POP PUSH2 0x861 DUP4 PUSH2 0x628 JUMP JUMPDEST SWAP3 POP DUP3 DUP3 MUL PUSH2 0x86F DUP2 PUSH2 0x628 JUMP JUMPDEST SWAP2 POP DUP3 DUP3 DIV DUP5 EQ DUP4 ISZERO OR PUSH2 0x886 JUMPI PUSH2 0x885 PUSH2 0x754 JUMP JUMPDEST JUMPDEST POP SWAP3 SWAP2 POP POP JUMP JUMPDEST PUSH1 0x0 PUSH2 0x898 DUP3 PUSH2 0x628 JUMP JUMPDEST SWAP2 POP PUSH32 0xFFFFFFFFFFFFFFFFFFFFFFFFFFFFFFFFFFFFFFFFFFFFFFFFFFFFFFFFFFFFFFFF DUP3 SUB PUSH2 0x8CA JUMPI PUSH2 0x8C9 PUSH2 0x754 JUMP JUMPDEST JUMPDEST PUSH1 0x1 DUP3 ADD SWAP1 POP SWAP2 SWAP1 POP JUMP JUMPDEST PUSH1 0x0 DUP3 DUP3 MSTORE PUSH1 0x20 DUP3 ADD SWAP1 POP SWAP3 SWAP2 POP POP JUMP JUMPDEST PUSH32 0x43616E6E6F742077697468647261772030204D5420746F6B656E730000000000 PUSH1 0x0 DUP3 ADD MSTORE POP JUMP JUMPDEST PUSH1 0x0 PUSH2 0x91C PUSH1 0x1B DUP4 PUSH2 0x8D5 JUMP JUMPDEST SWAP2 POP PUSH2 0x927 DUP3 PUSH2 0x8E6 JUMP JUMPDEST PUSH1 0x20 DUP3 ADD SWAP1 POP SWAP2 SWAP1 POP JUMP JUMPDEST PUSH1 0x0 PUSH1 0x20 DUP3 ADD SWAP1 POP DUP2 DUP2 SUB PUSH1 0x0 DUP4 ADD MSTORE PUSH2 0x94B DUP2 PUSH2 0x90F JUMP JUMPDEST SWAP1 POP SWAP2 SWAP1 POP JUMP JUMPDEST PUSH32 0x496E73756666696369656E742045544820696E20706F6F6C0000000000000000 PUSH1 0x0 DUP3 ADD MSTORE POP JUMP JUMPDEST PUSH1 0x0 PUSH2 0x988 PUSH1 0x18 DUP4 PUSH2 0x8D5 JUMP JUMPDEST SWAP2 POP PUSH2 0x993 DUP3 PUSH2 0x952 JUMP JUMPDEST PUSH1 0x20 DUP3 ADD SWAP1 POP SWAP2 SWAP1 POP JUMP JUMPDEST PUSH1 0x0 PUSH1 0x20 DUP3 ADD SWAP1 POP DUP2 DUP2 SUB PUSH1 0x0 DUP4 ADD MSTORE PUSH2 0x9B7 DUP2 PUSH2 0x97B JUMP JUMPDEST SWAP1 POP SWAP2 SWAP1 POP JUMP JUMPDEST PUSH1 0x0 PUSH2 0x9C9 DUP3 PUSH2 0x65C JUMP JUMPDEST SWAP1 POP SWAP2 SWAP1 POP JUMP JUMPDEST PUSH2 0x9D9 DUP2 PUSH2 0x9BE JUMP JUMPDEST DUP3 MSTORE POP POP JUMP JUMPDEST PUSH1 0x0 PUSH1 0x40 DUP3 ADD SWAP1 POP PUSH2 0x9F4 PUSH1 0x0 DUP4 ADD DUP6 PUSH2 0x9D0 JUMP JUMPDEST PUSH2 0xA01 PUSH1 0x20 DUP4 ADD DUP5 PUSH2 0x632 JUMP JUMPDEST SWAP4 SWAP3 POP POP POP JUMP JUMPDEST PUSH1 0x0 PUSH1 0x40 DUP3 ADD SWAP1 POP PUSH2 0xA1D PUSH1 0x0 DUP4 ADD DUP6 PUSH2 0x632 JUMP JUMPDEST PUSH2 0xA2A PUSH1 0x20 DUP4 ADD DUP5 PUSH2 0x632 JUMP JUMPDEST SWAP4 SWAP3 POP POP POP JUMP JUMPDEST PUSH32 0x43616E6E6F74206465706F736974203020455448000000000000000000000000 PUSH1 0x0 DUP3 ADD MSTORE POP JUMP JUMPDEST PUSH1 0x0 PUSH2 0xA67 PUSH1 0x14 DUP4 PUSH2 0x8D5 JUMP JUMPDEST SWAP2 POP PUSH2 0xA72 DUP3 PUSH2 0xA31 JUMP JUMPDEST PUSH1 0x20 DUP3 ADD SWAP1 POP SWAP2 SWAP1 POP JUMP JUMPDEST PUSH1 0x0 PUSH1 0x20 DUP3 ADD SWAP1 POP DUP2 DUP2 SUB PUSH1 0x0 DUP4 ADD MSTORE PUSH2 0xA96 DUP2 PUSH2 0xA5A JUMP JUMPDEST SWAP1 POP SWAP2 SWAP1 POP JUMP INVALID LOG2 PUSH5 0x6970667358 0x22 SLT KECCAK256 0xA6 0xA8 STATICCALL CALLCODE DELEGATECALL ADDMOD 0x5D 0x24 0x4B KECCAK256 CREATE SSTORE DUP11 CALLER 0xF6 PUSH27 0x453D4EEA5015DADBD269CD93C9CF2F6C64736F6C63430008140033 "
        },
        "methodIdentifiers": {
          "depositETH()": "f6326fb3",
          "interestAccrualPeriod()": "f511b6f7",
          "interestRatePerPeriod()": "81ea810d",
          "lastInterestUpdateTime()": "45b87e1d",
          "mtToken()": "ad1dd070",
          "totalETHDeposited()": "7b2c9070",
          "updateInterest()": "d1482791",
          "withdrawETH(uint256)": "f14210a6"
        }
      }
    }
  }
}