{
  "_format": "hh-sol-artifact-1",
  "contractName": "LiquidityPoolWithInterest",
  "sourceName": "contracts/LiquidityPool.sol",
  "abi": [
    {
      "inputs": [],
      "stateMutability": "nonpayable",
      "type": "constructor"
    },
    {
      "inputs": [],
      "name": "ReentrancyGuardReentrantCall",
      "type": "error"
    },
    {
      "anonymous": false,
      "inputs": [
        {
          "indexed": true,
          "internalType": "address",
          "name": "user",
          "type": "address"
        },
        {
          "indexed": false,
          "internalType": "uint256",
          "name": "ethAmount",
          "type": "uint256"
        },
        {
          "indexed": false,
          "internalType": "uint256",
          "name": "mtAmount",
          "type": "uint256"
        }
      ],
      "name": "Deposited",
      "type": "event"
    },
    {
      "anonymous": false,
      "inputs": [
        {
          "indexed": true,
          "internalType": "address",
          "name": "user",
          "type": "address"
        },
        {
          "indexed": false,
          "internalType": "uint256",
          "name": "ethAmount",
          "type": "uint256"
        },
        {
          "indexed": false,
          "internalType": "uint256",
          "name": "mtAmount",
          "type": "uint256"
        }
      ],
      "name": "Withdrawn",
      "type": "event"
    },
    {
      "inputs": [],
      "name": "depositETH",
      "outputs": [],
      "stateMutability": "payable",
      "type": "function"
    },
    {
      "inputs": [],
      "name": "interestAccrualPeriod",
      "outputs": [
        {
          "internalType": "uint256",
          "name": "",
          "type": "uint256"
        }
      ],
      "stateMutability": "view",
      "type": "function"
    },
    {
      "inputs": [],
      "name": "interestRatePerPeriod",
      "outputs": [
        {
          "internalType": "uint256",
          "name": "",
          "type": "uint256"
        }
      ],
      "stateMutability": "view",
      "type": "function"
    },
    {
      "inputs": [],
      "name": "lastInterestUpdateTime",
      "outputs": [
        {
          "internalType": "uint256",
          "name": "",
          "type": "uint256"
        }
      ],
      "stateMutability": "view",
      "type": "function"
    },
    {
      "inputs": [],
      "name": "mtToken",
      "outputs": [
        {
          "internalType": "contract IMTToken",
          "name": "",
          "type": "address"
        }
      ],
      "stateMutability": "view",
      "type": "function"
    },
    {
      "inputs": [],
      "name": "totalETHDeposited",
      "outputs": [
        {
          "internalType": "uint256",
          "name": "",
          "type": "uint256"
        }
      ],
      "stateMutability": "view",
      "type": "function"
    },
    {
      "inputs": [],
      "name": "updateInterest",
      "outputs": [],
      "stateMutability": "nonpayable",
      "type": "function"
    },
    {
      "inputs": [
        {
          "internalType": "address",
          "name": "",
          "type": "address"
        }
      ],
      "name": "userDeposits",
      "outputs": [
        {
          "internalType": "uint256",
          "name": "",
          "type": "uint256"
        }
      ],
      "stateMutability": "view",
      "type": "function"
    },
    {
      "inputs": [
        {
          "internalType": "uint256",
          "name": "mtTokenAmount",
          "type": "uint256"
        }
      ],
      "name": "withdrawETH",
      "outputs": [],
      "stateMutability": "nonpayable",
      "type": "function"
    },
    {
      "stateMutability": "payable",
      "type": "receive"
    }
  ],
  "bytecode": "0x60806040526103e86003556005600455426005556201518060065534801561002657600080fd5b5060016000819055507345f0118a78a03cee83d82e0c8c5fa1579543eb67600160006101000a81548173ffffffffffffffffffffffffffffffffffffffff021916908373ffffffffffffffffffffffffffffffffffffffff160217905550610c6f806100936000396000f3fe60806040526004361061008a5760003560e01c8063ad1dd07011610059578063ad1dd07014610154578063d14827911461017f578063f14210a614610196578063f511b6f7146101bf578063f6326fb3146101ea57610091565b80630ba36dcd1461009657806345b87e1d146100d35780637b2c9070146100fe57806381ea810d1461012957610091565b3661009157005b600080fd5b3480156100a257600080fd5b506100bd60048036038101906100b891906107ce565b6101f4565b6040516100ca9190610814565b60405180910390f35b3480156100df57600080fd5b506100e861020c565b6040516100f59190610814565b60405180910390f35b34801561010a57600080fd5b50610113610212565b6040516101209190610814565b60405180910390f35b34801561013557600080fd5b5061013e610218565b60405161014b9190610814565b60405180910390f35b34801561016057600080fd5b5061016961021e565b604051610176919061088e565b60405180910390f35b34801561018b57600080fd5b50610194610244565b005b3480156101a257600080fd5b506101bd60048036038101906101b891906108d5565b6102f0565b005b3480156101cb57600080fd5b506101d461055f565b6040516101e19190610814565b60405180910390f35b6101f2610565565b005b60076020528060005260406000206000915090505481565b60055481565b60025481565b60045481565b600160009054906101000a900473ffffffffffffffffffffffffffffffffffffffff1681565b6006546005546102549190610931565b42106102ee5760006006546005544261026d9190610965565b61027791906109c8565b905060005b818110156102c557606460045460646102959190610931565b6003546102a291906109f9565b6102ac91906109c8565b60038190555080806102bd90610a3b565b91505061027c565b50600654816102d491906109f9565b600560008282546102e59190610931565b92505081905550505b565b6102f861071b565b6000811161033b576040517f08c379a000000000000000000000000000000000000000000000000000000000815260040161033290610ae0565b60405180910390fd5b610343610244565b60006003548261035391906109c8565b905080600760003373ffffffffffffffffffffffffffffffffffffffff1673ffffffffffffffffffffffffffffffffffffffff1681526020019081526020016000205410156103d7576040517f08c379a00000000000000000000000000000000000000000000000000000000081526004016103ce90610b4c565b60405180910390fd5b600160009054906101000a900473ffffffffffffffffffffffffffffffffffffffff1673ffffffffffffffffffffffffffffffffffffffff16639dc29fac33846040518363ffffffff1660e01b8152600401610434929190610b7b565b600060405180830381600087803b15801561044e57600080fd5b505af1158015610462573d6000803e3d6000fd5b505050503373ffffffffffffffffffffffffffffffffffffffff166108fc829081150290604051600060405180830381858888f193505050501580156104ac573d6000803e3d6000fd5b5080600760003373ffffffffffffffffffffffffffffffffffffffff1673ffffffffffffffffffffffffffffffffffffffff16815260200190815260200160002060008282546104fc9190610965565b925050819055503373ffffffffffffffffffffffffffffffffffffffff167f92ccf450a286a957af52509bc1c9939d1a6a481783e142e41e2499f0bb66ebc6828460405161054b929190610ba4565b60405180910390a25061055c610761565b50565b60065481565b61056d61071b565b600034116105b0576040517f08c379a00000000000000000000000000000000000000000000000000000000081526004016105a790610c19565b60405180910390fd5b6000600354346105c091906109f9565b9050600160009054906101000a900473ffffffffffffffffffffffffffffffffffffffff1673ffffffffffffffffffffffffffffffffffffffff166340c10f1933836040518363ffffffff1660e01b815260040161061f929190610b7b565b600060405180830381600087803b15801561063957600080fd5b505af115801561064d573d6000803e3d6000fd5b5050505034600260008282546106639190610931565b9250508190555034600760003373ffffffffffffffffffffffffffffffffffffffff1673ffffffffffffffffffffffffffffffffffffffff16815260200190815260200160002060008282546106b99190610931565b925050819055503373ffffffffffffffffffffffffffffffffffffffff167f73a19dd210f1a7f902193214c0ee91dd35ee5b4d920cba8d519eca65a7b488ca3483604051610708929190610ba4565b60405180910390a250610719610761565b565b600260005403610757576040517f3ee5aeb500000000000000000000000000000000000000000000000000000000815260040160405180910390fd5b6002600081905550565b6001600081905550565b600080fd5b600073ffffffffffffffffffffffffffffffffffffffff82169050919050565b600061079b82610770565b9050919050565b6107ab81610790565b81146107b657600080fd5b50565b6000813590506107c8816107a2565b92915050565b6000602082840312156107e4576107e361076b565b5b60006107f2848285016107b9565b91505092915050565b6000819050919050565b61080e816107fb565b82525050565b60006020820190506108296000830184610805565b92915050565b6000819050919050565b600061085461084f61084a84610770565b61082f565b610770565b9050919050565b600061086682610839565b9050919050565b60006108788261085b565b9050919050565b6108888161086d565b82525050565b60006020820190506108a3600083018461087f565b92915050565b6108b2816107fb565b81146108bd57600080fd5b50565b6000813590506108cf816108a9565b92915050565b6000602082840312156108eb576108ea61076b565b5b60006108f9848285016108c0565b91505092915050565b7f4e487b7100000000000000000000000000000000000000000000000000000000600052601160045260246000fd5b600061093c826107fb565b9150610947836107fb565b925082820190508082111561095f5761095e610902565b5b92915050565b6000610970826107fb565b915061097b836107fb565b925082820390508181111561099357610992610902565b5b92915050565b7f4e487b7100000000000000000000000000000000000000000000000000000000600052601260045260246000fd5b60006109d3826107fb565b91506109de836107fb565b9250826109ee576109ed610999565b5b828204905092915050565b6000610a04826107fb565b9150610a0f836107fb565b9250828202610a1d816107fb565b91508282048414831517610a3457610a33610902565b5b5092915050565b6000610a46826107fb565b91507fffffffffffffffffffffffffffffffffffffffffffffffffffffffffffffffff8203610a7857610a77610902565b5b600182019050919050565b600082825260208201905092915050565b7f43616e6e6f742077697468647261772030204d5420746f6b656e730000000000600082015250565b6000610aca601b83610a83565b9150610ad582610a94565b602082019050919050565b60006020820190508181036000830152610af981610abd565b9050919050565b7f5769746864726177616c2065786365656473206465706f736974000000000000600082015250565b6000610b36601a83610a83565b9150610b4182610b00565b602082019050919050565b60006020820190508181036000830152610b6581610b29565b9050919050565b610b7581610790565b82525050565b6000604082019050610b906000830185610b6c565b610b9d6020830184610805565b9392505050565b6000604082019050610bb96000830185610805565b610bc66020830184610805565b9392505050565b7f43616e6e6f74206465706f736974203020455448000000000000000000000000600082015250565b6000610c03601483610a83565b9150610c0e82610bcd565b602082019050919050565b60006020820190508181036000830152610c3281610bf6565b905091905056fea2646970667358221220a2250544e79d061e0f2a165684edd22c6e9a4774ea177007ba638995c1a6641c64736f6c63430008140033",
  "linkReferences": {},
  "deployedLinkReferences": {}
}